{
  "_format": "hh-sol-artifact-1",
  "contractName": "CoinFlip",
  "sourceName": "contracts/CoinFlip.sol",
  "abi": [
    {
      "inputs": [],
      "stateMutability": "nonpayable",
      "type": "constructor"
    },
    {
      "inputs": [
        {
          "internalType": "bool",
          "name": "userGuess",
          "type": "bool"
        }
      ],
      "name": "flipCoin",
      "outputs": [
        {
          "internalType": "bool",
          "name": "",
          "type": "bool"
        }
      ],
      "stateMutability": "payable",
      "type": "function"
    },
    {
      "inputs": [],
      "name": "owner",
      "outputs": [
        {
          "internalType": "address",
          "name": "",
          "type": "address"
        }
      ],
      "stateMutability": "view",
      "type": "function"
    },
    {
      "inputs": [],
      "name": "withdraw",
      "outputs": [],
      "stateMutability": "nonpayable",
      "type": "function"
    },
    {
      "stateMutability": "payable",
      "type": "receive"
    }
  ],
  "bytecode": "0x608060405234801561001057600080fd5b50336000806101000a81548173ffffffffffffffffffffffffffffffffffffffff021916908373ffffffffffffffffffffffffffffffffffffffff1602179055506105ec806100606000396000f3fe6080604052600436106100385760003560e01c80633ccfd60b146100445780637b8ff38f1461005b5780638da5cb5b1461008b5761003f565b3661003f57005b600080fd5b34801561005057600080fd5b506100596100b6565b005b6100756004803603810190610070919061033f565b6101ad565b604051610082919061037b565b60405180910390f35b34801561009757600080fd5b506100a06102de565b6040516100ad91906103d7565b60405180910390f35b60008054906101000a900473ffffffffffffffffffffffffffffffffffffffff1673ffffffffffffffffffffffffffffffffffffffff163373ffffffffffffffffffffffffffffffffffffffff1614610144576040517f08c379a000000000000000000000000000000000000000000000000000000000815260040161013b9061044f565b60405180910390fd5b60008054906101000a900473ffffffffffffffffffffffffffffffffffffffff1673ffffffffffffffffffffffffffffffffffffffff166108fc479081150290604051600060405180830381858888f193505050501580156101aa573d6000803e3d6000fd5b50565b60008034116101f1576040517f08c379a00000000000000000000000000000000000000000000000000000000081526004016101e8906104bb565b60405180910390fd5b6000806002426102019190610514565b1490508215158115150361026c573373ffffffffffffffffffffffffffffffffffffffff166108fc6002346102369190610574565b9081150290604051600060405180830381858888f19350505050158015610261573d6000803e3d6000fd5b5060019150506102d9565b60008054906101000a900473ffffffffffffffffffffffffffffffffffffffff1673ffffffffffffffffffffffffffffffffffffffff166108fc349081150290604051600060405180830381858888f193505050501580156102d2573d6000803e3d6000fd5b5060009150505b919050565b60008054906101000a900473ffffffffffffffffffffffffffffffffffffffff1681565b600080fd5b60008115159050919050565b61031c81610307565b811461032757600080fd5b50565b60008135905061033981610313565b92915050565b60006020828403121561035557610354610302565b5b60006103638482850161032a565b91505092915050565b61037581610307565b82525050565b6000602082019050610390600083018461036c565b92915050565b600073ffffffffffffffffffffffffffffffffffffffff82169050919050565b60006103c182610396565b9050919050565b6103d1816103b6565b82525050565b60006020820190506103ec60008301846103c8565b92915050565b600082825260208201905092915050565b7f4f6e6c79206f776e65722063616e207769746864726177000000000000000000600082015250565b60006104396017836103f2565b915061044482610403565b602082019050919050565b600060208201905081810360008301526104688161042c565b9050919050565b7f596f75206e65656420746f2062657420736f6d65204554482100000000000000600082015250565b60006104a56019836103f2565b91506104b08261046f565b602082019050919050565b600060208201905081810360008301526104d481610498565b9050919050565b6000819050919050565b7f4e487b7100000000000000000000000000000000000000000000000000000000600052601260045260246000fd5b600061051f826104db565b915061052a836104db565b92508261053a576105396104e5565b5b828206905092915050565b7f4e487b7100000000000000000000000000000000000000000000000000000000600052601160045260246000fd5b600061057f826104db565b915061058a836104db565b9250828202610598816104db565b915082820484148315176105af576105ae610545565b5b509291505056fea26469706673582212207d535c3c4a8e754f080c2ffc6955b089f792c1b145e3cb98cef4b87a6d48b14464736f6c63430008140033",
  "linkReferences": {},
  "deployedLinkReferences": {}
}